:100000000C942A000C943F000C943F000C943F0089
:100010000C943F000C943F000C943F000C943F0064
:100020000C943F000C943F000C943F000C943F0054
:100030000C943F000C943F000C943F000C943F0044
:100040000C943F000C943F000C943F000C943F0034
:100050000C943F0011241FBECFE5D4E0DEBFCDBF1E
:1000600011E0A0E6B0E0EEE9F5E002C005900D92E7
:10007000A833B107D9F70E942E010C94CD020C943D
:10008000000082E680B984E086BF11B8089584EA52
:1000900086BF06B607FEFDCF089583B984E886BF04
:1000A00006B607FEFDCF0895992354F40895215014
:1000B0003109E9F74F5F5F4F841795071CF40895E6
:1000C00040E050E029E730E0F2CF199A84E886BF9B
:1000D00006B607FEFDCF81E090E00E94540019981B
:1000E00084E886BF06B607FEFDCF0895189894E809
:1000F00096BF06B607FEFDCF93B19F7093B994E803
:1001000096BF06B607FEFDCF93B1807F892B83B9DA
:1001100084E886BF06B607FEFDCF0E9465000895FD
:10012000CF93C82F189884E886BF06B607FEFDCF88
:1001300083B18F7083B984E886BF06B607FEFDCF12
:1001400083B19C2F907F892B83B984E886BF06B644
:1001500007FEFDCF0E94650083B18F7083B984E8EC
:1001600086BF06B607FEFDCF23B130E1C39FC001B5
:100170001124822B83B984E886BF06B607FEFDCF23
:100180000E946500CF91089580E30E94760080E38D
:100190000E94760080E20E94760088E20E94900031
:1001A0008CE00E94900081E00E94900086E00E9416
:1001B000900080E80E9490000895CF93C82F189A6D
:1001C00084E886BF06B607FEFDCF83B18F7083B982
:1001D00084E886BF06B607FEFDCF83B19C2F907FD3
:1001E000892B83B984E886BF06B607FEFDCF0E943F
:1001F000650083B18F7083B984E886BF06B607FEB9
:10020000FDCF23B130E1C39FC0011124822B83B9FC
:1002100084E886BF06B607FEFDCF0E946500CF9139
:100220000895CF93DF93EC018881882331F02196E4
:100230000E94DD0089918111FBCFDF91CF9108955C
:100240008FB5826A8FBD8EB58B618EBD87E893E1D5
:1002500097BD86BD81B3806381BB08958FEF81BB5D
:1002600087BB84BB60E875E280E090E00E94660294
:100270000E9441000E94470080E70E944D000E94BA
:10028000C40080E80E94900080E690E00E94110186
:100290002FEF89E698E1215080409040E1F700C0BF
:1002A000000081E00E9490000E9420016894EE24EA
:1002B000E4F86894FF24F6F808E210E5D4E0C2E020
:1002C0000E9494028133D1F481E088BB8EE690E0F5
:1002D0000E949C0280E80E94900089E790E00E94C2
:1002E00011012FEF89E698E1215080409040E1F71D
:1002F00000C0000081E00E949000E2CF8233C9F488
:1003000018BA81E890E00E949C0280E80E94900068
:100310008DE890E00E9411012FEF89E698E12150CD
:1003200080409040E1F700C0000081E00E94900012
:10033000C7CF833329F580E882BBC8BB86E990E04C
:100340000E949C0280E80E94900083EA90E00E9454
:1003500011012FEF89E698E1215080409040E1F7AC
:1003600000C0000081E00E94900012BA2FEF89E6E1
:1003700098E1215080409040E1F700C00000A0CFFC
:100380008433C9F418BA8DEA90E00E949C0280E898
:100390000E9490008BEB90E00E9411012FEF89E604
:1003A00098E1215080409040E1F700C0000081E0DA
:1003B0000E94900085CF8533C9F4D8BB86EC90E0CD
:1003C0000E949C0280E80E94900082ED90E00E94D2
:1003D00011012FEF89E698E1215080409040E1F72C
:1003E00000C0000081E00E9490006ACF8633C9F40B
:1003F00018BA8BED90E00E949C0280E80E94900069
:1004000088EE90E00E9411012FEF89E698E12150DB
:1004100080409040E1F700C0000081E00E94900021
:100420004FCF873781F482EF90E00E949C0215BB8A
:100430002FEF8DE399E4215080409040E1F700C018
:10044000000015BA3DCF833781F48DEF90E00E9414
:100450009C0205BB2FEF8DE399E421508040904032
:10046000E1F700C0000015BA2BCF813681F489E096
:1004700091E00E949C02F5BA2FEF8EE994E22150A0
:1004800080409040E1F700C0000015BA19CF8436D3
:1004900081F481E191E00E949C02E5BA2FEF8EE9A0
:1004A00094E2215080409040E1F700C0000015BA6E
:1004B00007CF873331F48AE191E00E949C0215BA9C
:1004C000FFCE82E291E00E949C02FACE2AB128611E
:1004D0002AB920B5266820BDDC01CB01880F991F01
:1004E000AA1FBB1F880F991FAA1FBB1F9C01AD012C
:1004F000220F331F441F551F220F331F441F551F48
:1005000060E072E18AE790E00E94AB028FEF820F19
:1005100089B9DA01C9010197A109B109892F9A2F77
:10052000AB2FBB2780BD08955F9BFECF8CB1089594
:100530008CB95D9BFECF0895CF93DF93EC0188814A
:10054000882331F021960E94980289918111FBCF76
:10055000DF91CF910895A1E21A2EAA1BBB1BFD01CA
:100560000DC0AA1FBB1FEE1FFF1FA217B307E40792
:10057000F50720F0A21BB30BE40BF50B661F771FEA
:10058000881F991F1A9469F76095709580959095CA
:0E0590009B01AC01BD01CF010895F894FFCF8F
:10059E0020202048657920746865726521004C41E1
:1005AE004D505F4F4E3B2020004C414D505F4F4E03
:1005BE00004C414D505F4F46463B2020004C414D74
:1005CE00505F4F4646004865617465725F4F4E3B03
:1005DE002020004865617465725F4F4E004865616A
:1005EE007465725F4F46463B202000486561746516
:1005FE00725F4F4646004D4F544F525F4F4E3B2059
:10060E0020004D4F544F525F4F4E004D4F544F529E
:10061E005F4F46463B2020004D4F544F525F4F4692
:10062E004600466F72776172643B20200042616320
:10063E006B776172643B2020004C6566743B202012
:10064E000052696768743B20200053746F703B2022
:10065E00200053656C6563742070726F7065722034
:08066E006F7074696F6E2100CA
:00000001FF
