:100000000C942A000C943F000C943F000C943F0089
:100010000C943F000C943F000C943F000C943F0064
:100020000C943F000C943F000C943F000C943F0054
:100030000C943F000C943F000C943F000C943F0044
:100040000C943F000C943F000C943F000C943F0034
:100050000C943F0011241FBECFE5D4E0DEBFCDBF1E
:1000600010E0A0E6B0E0EAE8F2E002C005900D92F0
:10007000AC3BB107D9F70E9441000C9443010C94AA
:1000800000008FEF87BB84BB60E875E280E090E002
:100090000E94DC006894EE24E3F8C2E00F2EF5E045
:1000A000FF2EF02D0AE014E0D1E00E940A01813316
:1000B00031F4D8BB80E690E00E941201F6CF823383
:1000C00031F418BA87E690E00E941201EECF833334
:1000D00031F4C8BB8FE690E00E941201E6CF843372
:1000E00031F418BA84E790E00E941201DECF853324
:1000F00031F418BB8AE790E00E941201D6CF863314
:1001000031F418BA8FE790E00E941201CECF873702
:1001100081F485E890E00E94120105BB2FEF8DE38A
:1001200099E4215080409040E1F700C0000015BAEA
:10013000BCCF833781F48DE890E00E941201F5BABC
:100140002FEF8DE399E4215080409040E1F700C00B
:10015000000015BAAACF813681F486E990E00E94AA
:100160001201C5BB2FEF8EE994E2215080409040F0
:10017000E1F700C0000015BA98CF843681F48BE90E
:1001800090E00E941201E5BA2FEF8EE994E221502F
:1001900080409040E1F700C0000015BA86CF873359
:1001A00031F481EA90E00E94120115BA7ECF86EA0E
:1001B00090E00E94120179CF2AB128612AB920B5B6
:1001C000266820BDDC01CB01880F991FAA1FBB1F29
:1001D000880F991FAA1FBB1F9C01AD01220F331F5F
:1001E000441F551F220F331F441F551F60E072E14B
:1001F0008AE790E00E9421018FEF820F89B9DA012E
:10020000C9010197A109B109892F9A2FAB2FBB27EB
:1002100080BD08955F9BFECF8CB108958CB95D9B26
:10022000FECF0895CF93DF93EC018881882331F0CE
:1002300021960E940E0189918111FBCFDF91CF9110
:100240000895A1E21A2EAA1BBB1BFD010DC0AA1F17
:10025000BB1FEE1FFF1FA217B307E407F50720F02F
:10026000A21BB30BE40BF50B661F771F881F991FAA
:100270001A9469F760957095809590959B01AC01F3
:0A028000BD01CF010895F894FFCFEF
:10028A004C45445F4F4E004C45445F4F464600483C
:10029A005F4F4E00485F4F4646004D5F4F4E004D40
:1002AA005F4F464600466F7277617264004261632F
:1002BA006B77617264004C65667400526967687492
:1002CA000053746F700053656C6563742070726FAD
:0C02DA00706572206F7074696F6E000018
:00000001FF
