:100000000C942A000C9434000C9434000C943400AA
:100010000C9434000C9434000C9434000C94340090
:100020000C9434000C9434000C9434000C94340080
:100030000C9434000C9434000C9434000C94340070
:100040000C9434000C9434000C9434000C94340060
:100050000C94340011241FBECFE5D8E0DEBFCDBF25
:100060000E9444000C9454000C9400008FB5826AE6
:100070008FBD8EB58B618EBD87E893E197BD86BD40
:1000800081B3806381BB08950E9436008CE791E0C4
:100090009BBD8ABD2FE33DE043E02150304040400E
:0C00A000E1F700C00000F4CFF894FFCF9F
:00000001FF
