S01B0000426C7565746F6F74685F496E746572666163652E7372656363
S11300000C942A000C9447000C9447000C9447006D
S11300100C9447000C9447000C9447000C94470040
S11300200C9436010C9447000C9447000C94470040
S11300300C9447000C9447000C9447000C94470020
S11300400C9447000C9447000C9447000C94470010
S11300500C94470011241FBECFE5D4E0DEBFCDBF12
S113006011E0A0E6B0E0E4EFF5E002C005900D92E7
S1130070A833B107D9F721E0A8E3B1E001C01D928C
S1130080AA33B207E1F70E944D010C94F8020C94D4
S1130090000082E680B984E086BF11B8089584EA3E
S11300A086BF06B607FEFDCF089583B984E886BFF0
S11300B006B607FEFDCF0895992354F40895215000
S11300C03109E9F74F5F5F4F841795071CF40895D2
S11300D040E050E029E730E0F2CF199A84E886BF87
S11300E006B607FEFDCF81E090E00E945C001998FF
S11300F084E886BF06B607FEFDCF0895189894E8F5
S113010096BF06B607FEFDCF93B19F7093B994E8EE
S113011096BF06B607FEFDCF93B1807F892B83B9C6
S113012084E886BF06B607FEFDCF0E946D000895E1
S1130130CF93C82F189884E886BF06B607FEFDCF74
S113014083B18F7083B984E886BF06B607FEFDCFFE
S113015083B19C2F907F892B83B984E886BF06B630
S113016007FEFDCF0E946D0083B18F7083B984E8D0
S113017086BF06B607FEFDCF23B130E1C39FC001A1
S11301801124822B83B984E886BF06B607FEFDCF0F
S11301900E946D00CF91089580E30E947E0080E369
S11301A00E947E0080E20E947E0088E20E94980005
S11301B08CE00E94980081E00E94980086E00E94F2
S11301C0980080E80E9498000895CF93C82F189A49
S11301D084E886BF06B607FEFDCF83B18F7083B96E
S11301E084E886BF06B607FEFDCF83B19C2F907FBF
S11301F0892B83B984E886BF06B607FEFDCF0E942B
S11302006D0083B18F7083B984E886BF06B607FE9C
S1130210FDCF23B130E1C39FC0011124822B83B9E8
S113022084E886BF06B607FEFDCF0E946D00CF911D
S11302300895CF93DF93EC018881882331F02196D0
S11302400E94E50089918111FBCFDF91CF91089540
S11302508FB5826A8FBD8EB58B618EBD87E893E1C1
S113026097BD86BD81B3806381BB08951F920F92B1
S11302700FB60F9211248F939F9380913801909120
S11302803901019690933901809338019F918F91A0
S11302900F900FBE0F901F9018958FEF81BB87BBF7
S11302A084BB60E875E280E090E00E9491020E94C5
S11302B049000E944F0080E70E9455000E94CC0034
S11302C080E80E94980080E690E00E9419012FEFD8
S11302D089E698E1215080409040E1F700C0000099
S11302E081E00E9498000E94280188E08ABB83E094
S11302F081BB12BA81E084BB15BA789484E089BFCB
S11303001FBC6894EE24E4F86894FF24F6F808E22D
S113031010E5D4E0C2E00E94BF028133D1F481E051
S113032088BB8EE690E00E94C70280E80E94980095
S113033089E790E00E9419012FEF89E698E12150A6
S113034080409040E1F700C0000081E00E949800E6
S1130350E2CF8233C9F418BA81E890E00E94C70260
S113036080E80E9498008DE890E00E9419012FEF28
S113037089E698E1215080409040E1F700C00000F8
S113038081E00E949800C7CF833329F580E882BBBF
S1130390C8BB86E990E00E94C70280E80E949800EA
S11303A083EA90E00E9419012FEF89E698E1215039
S11303B080409040E1F700C0000081E00E94980076
S11303C018BA2FEF89E698E1215080409040E1F778
S11303D000C00000A0CF8433C9F418BA8DEA90E0BD
S11303E00E94C70280E80E9498008BEB90E00E9474
S11303F019012FEF89E698E1215080409040E1F700
S113040000C0000081E00E94980085CF8533C9F4C4
S1130410D8BB86EC90E00E94C70280E80E94980056
S113042082ED90E00E9419012FEF89E698E12150B6
S113043080409040E1F700C0000081E00E949800F5
S11304406ACF8633C9F418BA8BED90E00E94C702D4
S113045080E80E94980088EE90E00E9419012FEF36
S113046089E698E1215080409040E1F700C0000007
S113047081E00E9498004FCF873781F482EF90E0AB
S11304800E94C70215BB2FEF8DE399E421508040F1
S11304909040E1F700C0000015BA3DCF833781F4E6
S11304A08DEF90E00E94C70205BB2FEF8DE399E426
S11304B0215080409040E1F700C0000015BA2BCFD6
S11304C0813681F489E091E00E94C702F5BA2FEFEA
S11304D08EE994E2215080409040E1F700C0000092
S11304E015BA19CF843681F481E191E00E94C702E4
S11304F0E5BA2FEF8EE994E2215080409040E1F775
S113050000C0000015BA07CF873331F48AE191E0C7
S11305100E94C70215BAFFCE82E291E00E94C70290
S1130520FACE2AB128612AB920B5266820BDDC019B
S1130530CB01880F991FAA1FBB1F880F991FAA1FE1
S1130540BB1F9C01AD01220F331F441F551F220FF7
S1130550331F441F551F60E072E18AE790E00E9458
S1130560D6028FEF820F89B9DA01C9010197A10977
S1130570B109892F9A2FAB2FBB2780BD08955F9BAC
S1130580FECF8CB108958CB95D9BFECF0895CF93B7
S1130590DF93EC018881882331F021960E94C30205
S11305A089918111FBCFDF91CF910895A1E21A2E99
S11305B0AA1BBB1BFD010DC0AA1FBB1FEE1FFF1F03
S11305C0A217B307E407F50720F0A21BB30BE40B53
S11305D0F50B661F771F881F991F1A9469F760959A
S11305E07095809590959B01AC01BD01CF01089554
S10705F0F894FFCFA9
S11305F420202048657920746865726521004C4187
S11306044D505F4F4E3B2020004C414D505F4F4EA8
S1130614004C414D505F4F46463B2020004C414D19
S1130624505F4F4646004865617465725F4F4E3BA8
S11306342020004865617465725F4F4E004865610F
S11306447465725F4F46463B2020004865617465BB
S1130654725F4F4646004D4F544F525F4F4E3B20FE
S113066420004D4F544F525F4F4E004D4F544F5244
S11306745F4F46463B2020004D4F544F525F4F4638
S11306844600466F72776172643B202000426163C6
S11306946B776172643B2020004C6566743B2020B8
S11306A40052696768743B20200053746F703B20C8
S11306B4200053656C6563742070726F70657220DA
S10B06C46F7074696F6E000091
S9030000FC
