:100000000C942A000C943F000C943F000C943F0089
:100010000C943F000C943F000C943F000C943F0064
:100020000C943F000C943F000C943F000C943F0054
:100030000C943F000C943F000C943F000C943F0044
:100040000C943F000C943F000C943F000C943F0034
:100050000C943F0011241FBECFE5D4E0DEBFCDBF1E
:1000600010E0A0E6B0E0E8EDF1E002C005900D92EE
:10007000AA39B107D9F70E9441000C94EA000C9408
:1000800000008FEF87BB60E875E280E090E00E949F
:10009000830014E0D2E0C1E00E94B100813331F46A
:1000A000C8BB80E690E00E94B900F6CF823331F4FD
:1000B00018BA87E690E00E94B900EECF833331F49E
:1000C000D8BB8FE690E00E94B900E6CF843331F4CC
:1000D00018BA84E790E00E94B900DECF853331F48E
:1000E00018BB8AE790E00E94B900D6CF863331F47E
:1000F00018BA8FE790E00E94B900CECF85E890E073
:100100000E94B900C9CF2AB128612AB920B5266852
:1001100020BDDC01CB01880F991FAA1FBB1F880FD0
:10012000991FAA1FBB1F9C01AD01220F331F441F43
:10013000551F220F331F441F551F60E072E18AE7ED
:1001400090E00E94C8008FEF820F89B9DA01C901DF
:100150000197A109B109892F9A2FAB2FBB2780BD29
:1001600008955F9BFECF8CB108958CB95D9BFECF47
:100170000895CF93DF93EC018881882331F0219695
:100180000E94B50089918111FBCFDF91CF91089535
:10019000A1E21A2EAA1BBB1BFD010DC0AA1FBB1F8B
:1001A000EE1FFF1FA217B307E407F50720F0A21BFD
:1001B000B30BE40BF50B661F771F881F991F1A946A
:1001C00069F760957095809590959B01AC01BD0194
:0801D000CF010895F894FFCF60
:1001D8004C45445F4F4E004C45445F4F46460048EF
:1001E8005F4F4E00485F4F4646004D5F4F4E004DF3
:1001F8005F4F46460053656C6563742070726F707C
:0A0208006572206F7074696F6E005C
:00000001FF
