:100000000C942A000C943F000C943F000C943F0089
:100010000C943F000C943F000C943F000C943F0064
:100020000C943F000C943F000C943F000C943F0054
:100030000C943F000C943F000C943F000C943F0044
:100040000C943F000C943F000C943F000C943F0034
:100050000C943F0011241FBECFE5D8E0DEBFCDBF1A
:1000600010E0A0E6B0E0E2EDF2E002C005900D92F3
:10007000AC37B107D9F70E9420010C9467010C94AA
:10008000000082E680B984E086BF11B8089584EA52
:1000900086BF06B607FEFDCF089583B984E886BF04
:1000A00006B607FEFDCF0895992354F40895215014
:1000B0003109E9F74F5F5F4F841795071CF40895E6
:1000C00040E050E029E730E0F2CF199A84E886BF9B
:1000D00006B607FEFDCF81E090E00E94540019981B
:1000E00084E886BF06B607FEFDCF0895189894E809
:1000F00096BF06B607FEFDCF93B19F7093B994E803
:1001000096BF06B607FEFDCF93B1807F892B83B9DA
:1001100084E886BF06B607FEFDCF0E9465000895FD
:10012000CF93C82F189884E886BF06B607FEFDCF88
:1001300083B18F7083B984E886BF06B607FEFDCF12
:1001400083B19C2F907F892B83B984E886BF06B644
:1001500007FEFDCF0E94650083B18F7083B984E8EC
:1001600086BF06B607FEFDCF23B130E1C39FC001B5
:100170001124822B83B984E886BF06B607FEFDCF23
:100180000E946500CF91089580E30E94760080E38D
:100190000E94760080E20E94760088E20E94900031
:1001A0008CE00E94900081E00E94900086E00E9416
:1001B000900080E80E9490000895CF93C82F189A6D
:1001C00084E886BF06B607FEFDCF83B18F7083B982
:1001D00084E886BF06B607FEFDCF83B19C2F907FD3
:1001E000892B83B984E886BF06B607FEFDCF0E943F
:1001F000650083B18F7083B984E886BF06B607FEB9
:10020000FDCF23B130E1C39FC0011124822B83B9FC
:1002100084E886BF06B607FEFDCF0E946500CF9139
:100220000895CF93DF93EC018881882331F02196E4
:100230000E94DD0089918111FBCFDF91CF9108955C
:100240000E9441000E94470080E70E944D000E94EA
:10025000C40080E80E94900080E690E00E941101B6
:100260002FEF89E698E1215080409040E1F700C0EF
:10027000000080EC0E9490002FEF89E698E1215069
:1002800080409040E1F700C000008EE690E00E94C0
:10029000110189E790E00E9411018CE690E00E9434
:1002A00011012FEF89E698E1215080409040E1F75D
:1002B00000C0000081E00E9490002FEF89E698E1E5
:1002C000215080409040E1F700C00000C2CFF89478
:0202D000FFCF5E
:1002D2002020204865792074686572652100486590
:0C02E2006174657220697320004F4E00AB
:00000001FF
